{
  "contractName": "Voting",
  "abi": [
    {
      "constant": true,
      "inputs": [
        {
          "name": "",
          "type": "uint256"
        }
      ],
      "name": "ballots",
      "outputs": [
        {
          "name": "id",
          "type": "uint256"
        },
        {
          "name": "creator",
          "type": "address"
        },
        {
          "name": "proposalCount",
          "type": "uint8"
        }
      ],
      "payable": false,
      "stateMutability": "view",
      "type": "function",
      "signature": "0x5c632b38"
    },
    {
      "constant": true,
      "inputs": [],
      "name": "ballotCount",
      "outputs": [
        {
          "name": "",
          "type": "uint256"
        }
      ],
      "payable": false,
      "stateMutability": "view",
      "type": "function",
      "signature": "0xc0030032"
    },
    {
      "constant": true,
      "inputs": [],
      "name": "MAX_PROPOSAL_COUNT",
      "outputs": [
        {
          "name": "",
          "type": "uint8"
        }
      ],
      "payable": false,
      "stateMutability": "view",
      "type": "function",
      "signature": "0xdfe9ec58"
    },
    {
      "anonymous": false,
      "inputs": [
        {
          "indexed": false,
          "name": "voter",
          "type": "address"
        },
        {
          "indexed": false,
          "name": "ballotId",
          "type": "uint256"
        },
        {
          "indexed": false,
          "name": "proposalNumber",
          "type": "uint8"
        }
      ],
      "name": "Voted",
      "type": "event",
      "signature": "0xcc66c27f993ef125e1b985d84a52726edc66dcc64e94d172f80253e37d526372"
    },
    {
      "anonymous": false,
      "inputs": [
        {
          "indexed": false,
          "name": "id",
          "type": "uint256"
        },
        {
          "indexed": false,
          "name": "_name",
          "type": "string"
        }
      ],
      "name": "BallotAdded",
      "type": "event",
      "signature": "0x51b016662278da970457a1c318ebf759538bf83d338140926da3b9e97527b3bb"
    },
    {
      "constant": true,
      "inputs": [
        {
          "name": "ballotId",
          "type": "uint256"
        },
        {
          "name": "voter",
          "type": "address"
        }
      ],
      "name": "canVote",
      "outputs": [
        {
          "name": "",
          "type": "bool"
        }
      ],
      "payable": false,
      "stateMutability": "view",
      "type": "function",
      "signature": "0xcdb2867b"
    },
    {
      "constant": true,
      "inputs": [
        {
          "name": "ballotId",
          "type": "uint256"
        },
        {
          "name": "proposalNumber",
          "type": "uint8"
        }
      ],
      "name": "proposalVoteCount",
      "outputs": [
        {
          "name": "",
          "type": "uint256"
        }
      ],
      "payable": false,
      "stateMutability": "view",
      "type": "function",
      "signature": "0x8a295a03"
    },
    {
      "constant": false,
      "inputs": [
        {
          "name": "name",
          "type": "string"
        },
        {
          "name": "proposalCount",
          "type": "uint8"
        },
        {
          "name": "voters",
          "type": "address[]"
        }
      ],
      "name": "addBallot",
      "outputs": [],
      "payable": false,
      "stateMutability": "nonpayable",
      "type": "function",
      "signature": "0x522f255f"
    },
    {
      "constant": false,
      "inputs": [
        {
          "name": "ballotId",
          "type": "uint256"
        },
        {
          "name": "proposalNumber",
          "type": "uint8"
        }
      ],
      "name": "vote",
      "outputs": [],
      "payable": false,
      "stateMutability": "nonpayable",
      "type": "function",
      "signature": "0x943e8216"
    }
  ],
  "bytecode": "0x608060405234801561001057600080fd5b506108cb806100206000396000f3fe608060405260043610610083576000357c0100000000000000000000000000000000000000000000000000000000900463ffffffff168063522f255f146100885780635c632b38146101f15780638a295a0314610280578063943e8216146102dc578063c003003214610324578063cdb2867b1461034f578063dfe9ec58146103c2575b600080fd5b34801561009457600080fd5b506101ef600480360360608110156100ab57600080fd5b81019080803590602001906401000000008111156100c857600080fd5b8201836020820111156100da57600080fd5b803590602001918460018302840111640100000000831117156100fc57600080fd5b91908080601f016020809104026020016040519081016040528093929190818152602001838380828437600081840152601f19601f820116905080830192505050505050509192919290803560ff1690602001909291908035906020019064010000000081111561016c57600080fd5b82018360208201111561017e57600080fd5b803590602001918460208302840111640100000000831117156101a057600080fd5b919080806020026020016040519081016040528093929190818152602001838360200280828437600081840152601f19601f8201169050808301925050505050505091929192905050506103f3565b005b3480156101fd57600080fd5b5061022a6004803603602081101561021457600080fd5b8101908080359060200190929190505050610625565b604051808481526020018373ffffffffffffffffffffffffffffffffffffffff1673ffffffffffffffffffffffffffffffffffffffff1681526020018260ff1660ff168152602001935050505060405180910390f35b34801561028c57600080fd5b506102c6600480360360408110156102a357600080fd5b8101908080359060200190929190803560ff16906020019092919050505061067c565b6040518082815260200191505060405180910390f35b3480156102e857600080fd5b50610322600480360360408110156102ff57600080fd5b8101908080359060200190929190803560ff1690602001909291905050506106b3565b005b34801561033057600080fd5b5061033961082a565b6040518082815260200191505060405180910390f35b34801561035b57600080fd5b506103a86004803603604081101561037257600080fd5b8101908080359060200190929190803573ffffffffffffffffffffffffffffffffffffffff169060200190929190505050610830565b604051808215151515815260200191505060405180910390f35b3480156103ce57600080fd5b506103d761089a565b604051808260ff1660ff16815260200191505060405180910390f35b606460ff168260ff161115151561040957600080fd5b60606040519081016040528060015481526020013373ffffffffffffffffffffffffffffffffffffffff1681526020018360ff1681525060008060015481526020019081526020016000206000820151816000015560208201518160010160006101000a81548173ffffffffffffffffffffffffffffffffffffffff021916908373ffffffffffffffffffffffffffffffffffffffff16021790555060408201518160010160146101000a81548160ff021916908360ff16021790555090505060008090505b815181101561056757600160008060015481526020019081526020016000206002016000848481518110151561050157fe5b9060200190602002015173ffffffffffffffffffffffffffffffffffffffff1673ffffffffffffffffffffffffffffffffffffffff16815260200190815260200160002060006101000a81548160ff0219169083151502179055508060010190506104cf565b507f51b016662278da970457a1c318ebf759538bf83d338140926da3b9e97527b3bb600154846040518083815260200180602001828103825283818151815260200191508051906020019080838360005b838110156105d35780820151818401526020810190506105b8565b50505050905090810190601f1680156106005780820380516001836020036101000a031916815260200191505b50935050505060405180910390a1600160008154809291906001019190505550505050565b60006020528060005260406000206000915090508060000154908060010160009054906101000a900473ffffffffffffffffffffffffffffffffffffffff16908060010160149054906101000a900460ff16905083565b600080600084815260200190815260200160002060030160008360ff1660ff16815260200190815260200160002054905092915050565b600080600084815260200190815260200160002090508060020160003373ffffffffffffffffffffffffffffffffffffffff1673ffffffffffffffffffffffffffffffffffffffff16815260200190815260200160002060009054906101000a900460ff16151561072357600080fd5b60008160020160003373ffffffffffffffffffffffffffffffffffffffff1673ffffffffffffffffffffffffffffffffffffffff16815260200190815260200160002060006101000a81548160ff0219169083151502179055508060030160008360ff1660ff168152602001908152602001600020600081548092919060010191905055507fcc66c27f993ef125e1b985d84a52726edc66dcc64e94d172f80253e37d52637233826000015484604051808473ffffffffffffffffffffffffffffffffffffffff1673ffffffffffffffffffffffffffffffffffffffff1681526020018381526020018260ff1660ff168152602001935050505060405180910390a1505050565b60015481565b600080600084815260200190815260200160002060020160008373ffffffffffffffffffffffffffffffffffffffff1673ffffffffffffffffffffffffffffffffffffffff16815260200190815260200160002060009054906101000a900460ff16905092915050565b60648156fea165627a7a7230582004e185c2041472fbb3360236e3fe2b491d448bb50bddc78d96f2fac5fae200260029",
  "source": "pragma solidity ^0.5.0;\n\n\ncontract Voting {\n\n    //--- Structures\n    struct Ballot {\n        uint256 id;\n        address creator;\n        uint8 proposalCount;\n        mapping (address => bool) canVote;\n        mapping (uint8 => uint256) proposalVoteCount;\n    }\n\n    //--- Variables\n    mapping (uint256 => Ballot) public ballots;\n    uint256 public ballotCount;\n    uint8 public constant MAX_PROPOSAL_COUNT = 100;\n\n    //--- Events\n    event Voted(address voter, uint256 ballotId, uint8 proposalNumber);\n    event BallotAdded(uint256 id, string _name);\n\n    //--- Getters\n    function canVote(\n        uint256 ballotId,\n        address voter\n    )\n        public view returns(bool)\n    {\n        return ballots[ballotId].canVote[voter];\n    }\n\n    function proposalVoteCount(\n        uint256 ballotId,\n        uint8 proposalNumber\n    )\n        public view returns(uint256)\n    {\n        return ballots[ballotId].proposalVoteCount[proposalNumber];\n    }\n\n    //--- Functions\n    function addBallot( string memory name, uint8 proposalCount, address[] memory voters) public {\n        require(proposalCount <= MAX_PROPOSAL_COUNT);\n\n        ballots[ballotCount] = Ballot(ballotCount, msg.sender, proposalCount);\n        for (uint i = 0; i < voters.length; ++i) {\n            ballots[ballotCount].canVote[voters[i]] = true;\n        }\n\n        emit BallotAdded(ballotCount, name);\n        ballotCount++;\n    }\n\n    function vote(uint ballotId, uint8 proposalNumber) public {\n        Ballot storage ballot = ballots[ballotId];\n\n        require(ballot.canVote[msg.sender]);\n\n        ballot.canVote[msg.sender] = false;\n        ballot.proposalVoteCount[proposalNumber]++;\n\n        emit Voted(msg.sender, ballot.id, proposalNumber);\n    }\n\n}",
  "sourcePath": "/Users/ss/Work/stpoa/voting/truffle/contracts/Voting.sol",
  "compiler": {
    "name": "solc",
    "version": "0.5.0+commit.1d4f565a.Emscripten.clang"
  },
  "schemaVersion": "3.0.2",
  "updatedAt": "2019-02-25T14:24:17.529Z",
  "devdoc": {
    "methods": {}
  },
  "userdoc": {
    "methods": {}
  }
}