{
  "contractName": "Voting",
  "abi": [
    {
      "constant": true,
      "inputs": [
        {
          "name": "",
          "type": "uint256"
        }
      ],
      "name": "ballots",
      "outputs": [
        {
          "name": "id",
          "type": "uint256"
        },
        {
          "name": "creator",
          "type": "address"
        },
        {
          "name": "proposalCount",
          "type": "uint8"
        }
      ],
      "payable": false,
      "stateMutability": "view",
      "type": "function"
    },
    {
      "constant": true,
      "inputs": [],
      "name": "ballotCount",
      "outputs": [
        {
          "name": "",
          "type": "uint256"
        }
      ],
      "payable": false,
      "stateMutability": "view",
      "type": "function"
    },
    {
      "constant": true,
      "inputs": [],
      "name": "MAX_PROPOSAL_COUNT",
      "outputs": [
        {
          "name": "",
          "type": "uint8"
        }
      ],
      "payable": false,
      "stateMutability": "view",
      "type": "function"
    },
    {
      "anonymous": false,
      "inputs": [
        {
          "indexed": false,
          "name": "voter",
          "type": "address"
        },
        {
          "indexed": false,
          "name": "ballotId",
          "type": "uint256"
        },
        {
          "indexed": false,
          "name": "proposalNumber",
          "type": "uint8"
        }
      ],
      "name": "Voted",
      "type": "event"
    },
    {
      "anonymous": false,
      "inputs": [
        {
          "indexed": false,
          "name": "id",
          "type": "uint256"
        },
        {
          "indexed": false,
          "name": "_name",
          "type": "string"
        }
      ],
      "name": "BallotAdded",
      "type": "event"
    },
    {
      "constant": false,
      "inputs": [
        {
          "name": "name",
          "type": "string"
        },
        {
          "name": "proposalCount",
          "type": "uint8"
        },
        {
          "name": "voters",
          "type": "address[]"
        }
      ],
      "name": "addBallot",
      "outputs": [],
      "payable": false,
      "stateMutability": "nonpayable",
      "type": "function"
    },
    {
      "constant": false,
      "inputs": [
        {
          "name": "ballotId",
          "type": "uint256"
        },
        {
          "name": "proposalNumber",
          "type": "uint8"
        }
      ],
      "name": "vote",
      "outputs": [],
      "payable": false,
      "stateMutability": "nonpayable",
      "type": "function"
    }
  ],
  "bytecode": "0x608060405234801561001057600080fd5b50610745806100206000396000f3fe60806040526004361061006d576000357c0100000000000000000000000000000000000000000000000000000000900463ffffffff168063522f255f146100725780635c632b38146101db578063943e82161461026a578063c0030032146102b2578063dfe9ec58146102dd575b600080fd5b34801561007e57600080fd5b506101d96004803603606081101561009557600080fd5b81019080803590602001906401000000008111156100b257600080fd5b8201836020820111156100c457600080fd5b803590602001918460018302840111640100000000831117156100e657600080fd5b91908080601f016020809104026020016040519081016040528093929190818152602001838380828437600081840152601f19601f820116905080830192505050505050509192919290803560ff1690602001909291908035906020019064010000000081111561015657600080fd5b82018360208201111561016857600080fd5b8035906020019184602083028401116401000000008311171561018a57600080fd5b919080806020026020016040519081016040528093929190818152602001838360200280828437600081840152601f19601f82011690508083019250505050505050919291929050505061030e565b005b3480156101e757600080fd5b50610214600480360360208110156101fe57600080fd5b8101908080359060200190929190505050610540565b604051808481526020018373ffffffffffffffffffffffffffffffffffffffff1673ffffffffffffffffffffffffffffffffffffffff1681526020018260ff1660ff168152602001935050505060405180910390f35b34801561027657600080fd5b506102b06004803603604081101561028d57600080fd5b8101908080359060200190929190803560ff169060200190929190505050610597565b005b3480156102be57600080fd5b506102c761070e565b6040518082815260200191505060405180910390f35b3480156102e957600080fd5b506102f2610714565b604051808260ff1660ff16815260200191505060405180910390f35b606460ff168260ff161115151561032457600080fd5b60606040519081016040528060015481526020013373ffffffffffffffffffffffffffffffffffffffff1681526020018360ff1681525060008060015481526020019081526020016000206000820151816000015560208201518160010160006101000a81548173ffffffffffffffffffffffffffffffffffffffff021916908373ffffffffffffffffffffffffffffffffffffffff16021790555060408201518160010160146101000a81548160ff021916908360ff16021790555090505060008090505b815181101561048257600160008060015481526020019081526020016000206002016000848481518110151561041c57fe5b9060200190602002015173ffffffffffffffffffffffffffffffffffffffff1673ffffffffffffffffffffffffffffffffffffffff16815260200190815260200160002060006101000a81548160ff0219169083151502179055508060010190506103ea565b507f51b016662278da970457a1c318ebf759538bf83d338140926da3b9e97527b3bb600154846040518083815260200180602001828103825283818151815260200191508051906020019080838360005b838110156104ee5780820151818401526020810190506104d3565b50505050905090810190601f16801561051b5780820380516001836020036101000a031916815260200191505b50935050505060405180910390a1600160008154809291906001019190505550505050565b60006020528060005260406000206000915090508060000154908060010160009054906101000a900473ffffffffffffffffffffffffffffffffffffffff16908060010160149054906101000a900460ff16905083565b600080600084815260200190815260200160002090508060020160003373ffffffffffffffffffffffffffffffffffffffff1673ffffffffffffffffffffffffffffffffffffffff16815260200190815260200160002060009054906101000a900460ff16151561060757600080fd5b60008160020160003373ffffffffffffffffffffffffffffffffffffffff1673ffffffffffffffffffffffffffffffffffffffff16815260200190815260200160002060006101000a81548160ff0219169083151502179055508060030160008360ff1660ff168152602001908152602001600020600081548092919060010191905055507fcc66c27f993ef125e1b985d84a52726edc66dcc64e94d172f80253e37d52637233826000015484604051808473ffffffffffffffffffffffffffffffffffffffff1673ffffffffffffffffffffffffffffffffffffffff1681526020018381526020018260ff1660ff168152602001935050505060405180910390a1505050565b60015481565b60648156fea165627a7a72305820baf569fb218b191a45e1e270f5e3cd796dc54a6e3c1c70e4289703fc5795de150029",
  "source": "pragma solidity ^0.5.0;\n\n\ncontract Voting {\n\n    //--- Structures\n    struct Ballot {\n        uint256 id;\n        address creator;\n        uint8 proposalCount;\n        mapping (address => bool) canVote;\n        mapping (uint8 => uint256) proposalVoteCount;\n    }\n\n    //--- Variables\n    mapping (uint256 => Ballot) public ballots;\n    uint256 public ballotCount;\n    uint8 public constant MAX_PROPOSAL_COUNT = 100;\n\n    //--- Events\n    event Voted(address voter, uint256 ballotId, uint8 proposalNumber);\n    event BallotAdded(uint256 id, string _name);\n\n    //--- Functions\n    function addBallot( string memory name, uint8 proposalCount, address[] memory voters) public {\n        require(proposalCount <= MAX_PROPOSAL_COUNT);\n\n        ballots[ballotCount] = Ballot(ballotCount, msg.sender, proposalCount);\n        for (uint i = 0; i < voters.length; ++i) {\n            ballots[ballotCount].canVote[voters[i]] = true;\n        }\n\n        emit BallotAdded(ballotCount, name);\n        ballotCount++;\n    }\n\n    function vote(uint ballotId, uint8 proposalNumber) public {\n        Ballot storage ballot = ballots[ballotId];\n\n        require(ballot.canVote[msg.sender]);\n\n        ballot.canVote[msg.sender] = false;\n        ballot.proposalVoteCount[proposalNumber]++;\n\n        emit Voted(msg.sender, ballot.id, proposalNumber);\n    }\n\n}",
  "sourcePath": "/Users/ss/Work/stpoa/voting/contracts/Voting.sol",
  "compiler": {
    "name": "solc",
    "version": "0.5.0+commit.1d4f565a.Emscripten.clang"
  },
  "schemaVersion": "3.0.2",
  "updatedAt": "2019-02-25T08:44:51.922Z",
  "devdoc": {
    "methods": {}
  },
  "userdoc": {
    "methods": {}
  }
}