{
  "contractName": "Voting",
  "abi": [
    {
      "constant": true,
      "inputs": [
        {
          "name": "",
          "type": "uint256"
        }
      ],
      "name": "ballots",
      "outputs": [
        {
          "name": "id",
          "type": "uint256"
        },
        {
          "name": "creator",
          "type": "address"
        },
        {
          "name": "proposalCount",
          "type": "uint8"
        },
        {
          "name": "begun",
          "type": "bool"
        }
      ],
      "payable": false,
      "stateMutability": "view",
      "type": "function",
      "signature": "0x5c632b38"
    },
    {
      "constant": true,
      "inputs": [],
      "name": "ballotCount",
      "outputs": [
        {
          "name": "",
          "type": "uint256"
        }
      ],
      "payable": false,
      "stateMutability": "view",
      "type": "function",
      "signature": "0xc0030032"
    },
    {
      "constant": true,
      "inputs": [],
      "name": "MAX_PROPOSAL_COUNT",
      "outputs": [
        {
          "name": "",
          "type": "uint8"
        }
      ],
      "payable": false,
      "stateMutability": "view",
      "type": "function",
      "signature": "0xdfe9ec58"
    },
    {
      "anonymous": false,
      "inputs": [
        {
          "indexed": true,
          "name": "id",
          "type": "uint256"
        },
        {
          "indexed": false,
          "name": "creator",
          "type": "address"
        },
        {
          "indexed": false,
          "name": "proposalCount",
          "type": "uint8"
        },
        {
          "indexed": false,
          "name": "name",
          "type": "string"
        }
      ],
      "name": "BallotAdded",
      "type": "event",
      "signature": "0x89fce686a710602fe9144e996512ffd9c161d24bc26eed56f4dca2151ab5f073"
    },
    {
      "anonymous": false,
      "inputs": [
        {
          "indexed": true,
          "name": "ballotId",
          "type": "uint256"
        },
        {
          "indexed": true,
          "name": "proposalId",
          "type": "uint8"
        },
        {
          "indexed": false,
          "name": "proposalName",
          "type": "string"
        }
      ],
      "name": "BallotProposalDefined",
      "type": "event",
      "signature": "0x8af652bcac294cbcdd724c7bc33aca2800a5ad3ab4735d9692390ca52df8a7d8"
    },
    {
      "anonymous": false,
      "inputs": [
        {
          "indexed": true,
          "name": "ballotId",
          "type": "uint256"
        }
      ],
      "name": "Begun",
      "type": "event",
      "signature": "0xeded15e9695d96d83857ff916ce34bcda18b619961843afd49324ab95f8d68ec"
    },
    {
      "anonymous": false,
      "inputs": [
        {
          "indexed": true,
          "name": "voter",
          "type": "address"
        },
        {
          "indexed": true,
          "name": "ballotId",
          "type": "uint256"
        },
        {
          "indexed": false,
          "name": "proposalNumber",
          "type": "uint8"
        }
      ],
      "name": "Voted",
      "type": "event",
      "signature": "0xcc66c27f993ef125e1b985d84a52726edc66dcc64e94d172f80253e37d526372"
    },
    {
      "constant": true,
      "inputs": [
        {
          "name": "ballotId",
          "type": "uint256"
        },
        {
          "name": "voter",
          "type": "address"
        }
      ],
      "name": "canVote",
      "outputs": [
        {
          "name": "",
          "type": "bool"
        }
      ],
      "payable": false,
      "stateMutability": "view",
      "type": "function",
      "signature": "0xcdb2867b"
    },
    {
      "constant": true,
      "inputs": [
        {
          "name": "ballotId",
          "type": "uint256"
        },
        {
          "name": "proposalNumber",
          "type": "uint8"
        }
      ],
      "name": "proposalVoteCount",
      "outputs": [
        {
          "name": "",
          "type": "uint256"
        }
      ],
      "payable": false,
      "stateMutability": "view",
      "type": "function",
      "signature": "0x8a295a03"
    },
    {
      "constant": false,
      "inputs": [
        {
          "name": "name",
          "type": "string"
        },
        {
          "name": "proposalCount",
          "type": "uint8"
        },
        {
          "name": "voters",
          "type": "address[]"
        }
      ],
      "name": "addBallot",
      "outputs": [],
      "payable": false,
      "stateMutability": "nonpayable",
      "type": "function",
      "signature": "0x522f255f"
    },
    {
      "constant": false,
      "inputs": [
        {
          "name": "ballotId",
          "type": "uint256"
        },
        {
          "name": "proposalId",
          "type": "uint8"
        },
        {
          "name": "proposalName",
          "type": "string"
        }
      ],
      "name": "defineBallotProposal",
      "outputs": [],
      "payable": false,
      "stateMutability": "nonpayable",
      "type": "function",
      "signature": "0xfb3b7f03"
    },
    {
      "constant": false,
      "inputs": [
        {
          "name": "ballotId",
          "type": "uint256"
        }
      ],
      "name": "begin",
      "outputs": [],
      "payable": false,
      "stateMutability": "nonpayable",
      "type": "function",
      "signature": "0x3fe80d6e"
    },
    {
      "constant": false,
      "inputs": [
        {
          "name": "ballotId",
          "type": "uint256"
        },
        {
          "name": "proposalNumber",
          "type": "uint8"
        }
      ],
      "name": "vote",
      "outputs": [],
      "payable": false,
      "stateMutability": "nonpayable",
      "type": "function",
      "signature": "0x943e8216"
    }
  ],
  "bytecode": "0x608060405234801561001057600080fd5b50610f81806100206000396000f3fe608060405260043610610099576000357c0100000000000000000000000000000000000000000000000000000000900463ffffffff1680633fe80d6e1461009e578063522f255f146100d95780635c632b38146102425780638a295a03146102dc578063943e821614610338578063c003003214610380578063cdb2867b146103ab578063dfe9ec581461041e578063fb3b7f031461044f575b600080fd5b3480156100aa57600080fd5b506100d7600480360360208110156100c157600080fd5b810190808035906020019092919050505061052e565b005b3480156100e557600080fd5b50610240600480360360608110156100fc57600080fd5b810190808035906020019064010000000081111561011957600080fd5b82018360208201111561012b57600080fd5b8035906020019184600183028401116401000000008311171561014d57600080fd5b91908080601f016020809104026020016040519081016040528093929190818152602001838380828437600081840152601f19601f820116905080830192505050505050509192919290803560ff169060200190929190803590602001906401000000008111156101bd57600080fd5b8201836020820111156101cf57600080fd5b803590602001918460208302840111640100000000831117156101f157600080fd5b919080806020026020016040519081016040528093929190818152602001838360200280828437600081840152601f19601f820116905080830192505050505050509192919290505050610666565b005b34801561024e57600080fd5b5061027b6004803603602081101561026557600080fd5b81019080803590602001909291905050506108fc565b604051808581526020018473ffffffffffffffffffffffffffffffffffffffff1673ffffffffffffffffffffffffffffffffffffffff1681526020018360ff1660ff1681526020018215151515815260200194505050505060405180910390f35b3480156102e857600080fd5b50610322600480360360408110156102ff57600080fd5b8101908080359060200190929190803560ff169060200190929190505050610966565b6040518082815260200191505060405180910390f35b34801561034457600080fd5b5061037e6004803603604081101561035b57600080fd5b8101908080359060200190929190803560ff16906020019092919050505061099d565b005b34801561038c57600080fd5b50610395610c05565b6040518082815260200191505060405180910390f35b3480156103b757600080fd5b50610404600480360360408110156103ce57600080fd5b8101908080359060200190929190803573ffffffffffffffffffffffffffffffffffffffff169060200190929190505050610c0b565b604051808215151515815260200191505060405180910390f35b34801561042a57600080fd5b50610433610c75565b604051808260ff1660ff16815260200191505060405180910390f35b34801561045b57600080fd5b5061052c6004803603606081101561047257600080fd5b8101908080359060200190929190803560ff169060200190929190803590602001906401000000008111156104a657600080fd5b8201836020820111156104b857600080fd5b803590602001918460018302840111640100000000831117156104da57600080fd5b91908080601f016020809104026020016040519081016040528093929190818152602001838380828437600081840152601f19601f820116905080830192505050505050509192919290505050610c7a565b005b8060008082815260200190815260200160002060010160009054906101000a900473ffffffffffffffffffffffffffffffffffffffff1673ffffffffffffffffffffffffffffffffffffffff163373ffffffffffffffffffffffffffffffffffffffff16141515610607576040517f08c379a000000000000000000000000000000000000000000000000000000000815260040180806020018281038252600b8152602001807f4e4f545f43524541544f5200000000000000000000000000000000000000000081525060200191505060405180910390fd5b600160008084815260200190815260200160002060050160006101000a81548160ff021916908315150217905550817feded15e9695d96d83857ff916ce34bcda18b619961843afd49324ab95f8d68ec60405160405180910390a25050565b606460ff168260ff161115151561067c57600080fd5b60806040519081016040528060015481526020013373ffffffffffffffffffffffffffffffffffffffff1681526020018360ff1681526020016000151581525060008060015481526020019081526020016000206000820151816000015560208201518160010160006101000a81548173ffffffffffffffffffffffffffffffffffffffff021916908373ffffffffffffffffffffffffffffffffffffffff16021790555060408201518160010160146101000a81548160ff021916908360ff16021790555060608201518160050160006101000a81548160ff02191690831515021790555090505060008090505b815181101561080357600160008060015481526020019081526020016000206003016000848481518110151561079d57fe5b9060200190602002015173ffffffffffffffffffffffffffffffffffffffff1673ffffffffffffffffffffffffffffffffffffffff16815260200190815260200160002060006101000a81548160ff02191690831515021790555080600101905061076b565b506001547f89fce686a710602fe9144e996512ffd9c161d24bc26eed56f4dca2151ab5f073338486604051808473ffffffffffffffffffffffffffffffffffffffff1673ffffffffffffffffffffffffffffffffffffffff1681526020018360ff1660ff16815260200180602001828103825283818151815260200191508051906020019080838360005b838110156108a957808201518184015260208101905061088e565b50505050905090810190601f1680156108d65780820380516001836020036101000a031916815260200191505b5094505050505060405180910390a2600160008154809291906001019190505550505050565b60006020528060005260406000206000915090508060000154908060010160009054906101000a900473ffffffffffffffffffffffffffffffffffffffff16908060010160149054906101000a900460ff16908060050160009054906101000a900460ff16905084565b600080600084815260200190815260200160002060040160008360ff1660ff16815260200190815260200160002054905092915050565b8160008082815260200190815260200160002060050160009054906101000a900460ff161515610a35576040517f08c379a00000000000000000000000000000000000000000000000000000000081526004018080602001828103825260098152602001807f4e4f545f424547554e000000000000000000000000000000000000000000000081525060200191505060405180910390fd5b8260008082815260200190815260200160002060030160003373ffffffffffffffffffffffffffffffffffffffff1673ffffffffffffffffffffffffffffffffffffffff16815260200190815260200160002060009054906101000a900460ff161515610b0a576040517f08c379a000000000000000000000000000000000000000000000000000000000815260040180806020018281038252600b8152602001807f43414e4e4f545f564f544500000000000000000000000000000000000000000081525060200191505060405180910390fd5b6000806000868152602001908152602001600020905060008160030160003373ffffffffffffffffffffffffffffffffffffffff1673ffffffffffffffffffffffffffffffffffffffff16815260200190815260200160002060006101000a81548160ff0219169083151502179055508060040160008560ff1660ff1681526020019081526020016000206000815480929190600101919050555080600001543373ffffffffffffffffffffffffffffffffffffffff167fcc66c27f993ef125e1b985d84a52726edc66dcc64e94d172f80253e37d52637286604051808260ff1660ff16815260200191505060405180910390a35050505050565b60015481565b600080600084815260200190815260200160002060030160008373ffffffffffffffffffffffffffffffffffffffff1673ffffffffffffffffffffffffffffffffffffffff16815260200190815260200160002060009054906101000a900460ff16905092915050565b606481565b8260008082815260200190815260200160002060050160009054906101000a900460ff16151515610d13576040517f08c379a00000000000000000000000000000000000000000000000000000000081526004018080602001828103825260058152602001807f424547554e00000000000000000000000000000000000000000000000000000081525060200191505060405180910390fd5b838360008083815260200190815260200160002060020160008260ff1660ff16815260200190815260200160002060009054906101000a900460ff16151515610dc4576040517f08c379a00000000000000000000000000000000000000000000000000000000081526004018080602001828103825260188152602001807f50524f504f53414c5f414c52454144595f444546494e4544000000000000000081525060200191505060405180910390fd5b858560008083815260200190815260200160002060010160149054906101000a900460ff1660ff168160ff16101515610e65576040517f08c379a000000000000000000000000000000000000000000000000000000000815260040180806020018281038252600b8152602001807f49445f544f5f4c4152474500000000000000000000000000000000000000000081525060200191505060405180910390fd5b8660ff16887f8af652bcac294cbcdd724c7bc33aca2800a5ad3ab4735d9692390ca52df8a7d8886040518080602001828103825283818151815260200191508051906020019080838360005b83811015610ecc578082015181840152602081019050610eb1565b50505050905090810190601f168015610ef95780820380516001836020036101000a031916815260200191505b509250505060405180910390a360016000808a815260200190815260200160002060020160008960ff1660ff16815260200190815260200160002060006101000a81548160ff021916908315150217905550505050505050505056fea165627a7a723058209fe74093c013716996c5ad6cd943ad417b7782f8368b3d8456a61ae500a11d580029",
  "source": "pragma solidity ^0.5.0;\n\n\ncontract Voting {\n\n    //--- Structures\n    struct Ballot {\n        uint256 id;\n        address creator;\n        uint8 proposalCount;\n        mapping (uint8 => bool) proposalDefined;\n        mapping (address => bool) canVote;\n        mapping (uint8 => uint256) proposalVoteCount;\n        bool begun;\n    }\n\n    //--- Variables\n    mapping (uint256 => Ballot) public ballots;\n    uint256 public ballotCount;\n    uint8 public constant MAX_PROPOSAL_COUNT = 100;\n\n    //--- Events\n    event BallotAdded(\n        uint256 indexed id,\n        address creator,\n        uint8 proposalCount,\n        string name\n    );\n\n    event BallotProposalDefined(\n        uint256 indexed ballotId,\n        uint8 indexed proposalId,\n        string proposalName\n    );\n\n    event Begun(uint256 indexed ballotId);\n\n    event Voted(address indexed voter, uint256 indexed ballotId, uint8 proposalNumber);\n\n    // Modifiers\n    modifier onlyBegun(uint256 ballotId) {\n        require(ballots[ballotId].begun, \"NOT_BEGUN\");\n        _;\n    }\n\n    modifier onlyUnbegun(uint256 ballotId) {\n        require(!ballots[ballotId].begun, \"BEGUN\");\n        _;\n    }\n\n    modifier onlyCanVote(uint256 ballotId) {\n        require(ballots[ballotId].canVote[msg.sender], \"CANNOT_VOTE\");\n        _;\n    }\n\n    modifier onlyCreator(uint256 ballotId) {\n        require(msg.sender == ballots[ballotId].creator, \"NOT_CREATOR\");\n        _;\n    }\n\n    modifier onlyUndefinedProposal(uint256 ballotId, uint8 proposalId) {\n        require(\n            !ballots[ballotId].proposalDefined[proposalId],\n            \"PROPOSAL_ALREADY_DEFINED\"\n        );\n        _;\n    }\n\n    modifier onlyWithinProposalCount(uint256 ballotId, uint8 proposalId) {\n        require(\n            proposalId < ballots[ballotId].proposalCount,\n            \"ID_TO_LARGE\"\n        );\n        _;\n    }\n\n    //--- Getters\n    function canVote(\n        uint256 ballotId,\n        address voter\n    )\n        public view returns(bool)\n    {\n        return ballots[ballotId].canVote[voter];\n    }\n\n    function proposalVoteCount(\n        uint256 ballotId,\n        uint8 proposalNumber\n    )\n        public view returns(uint256)\n    {\n        return ballots[ballotId].proposalVoteCount[proposalNumber];\n    }\n\n    //--- Functions\n    function addBallot(\n        string memory name,\n        uint8 proposalCount,\n        address[] memory voters\n    ) public {\n        require(proposalCount <= MAX_PROPOSAL_COUNT);\n\n        ballots[ballotCount] = Ballot(\n            ballotCount,\n            msg.sender,\n            proposalCount,\n            false\n        );\n\n        for (uint i = 0; i < voters.length; ++i) {\n            ballots[ballotCount].canVote[voters[i]] = true;\n        }\n\n        emit BallotAdded(ballotCount, msg.sender, proposalCount, name);\n        ballotCount++;\n    }\n\n    function defineBallotProposal(\n        uint256 ballotId,\n        uint8 proposalId,\n        string memory proposalName\n    ) public\n        onlyUnbegun(ballotId)\n        onlyUndefinedProposal(ballotId, proposalId)\n        onlyWithinProposalCount(ballotId, proposalId)\n    {\n        emit BallotProposalDefined(ballotId, proposalId, proposalName);\n        ballots[ballotId].proposalDefined[proposalId] = true;\n    }\n\n    function begin(uint256 ballotId) public onlyCreator(ballotId) {\n        ballots[ballotId].begun = true;\n        emit Begun(ballotId);\n    }\n\n    function vote(\n        uint ballotId,\n        uint8 proposalNumber\n    ) public onlyBegun(ballotId) onlyCanVote(ballotId) {\n        Ballot storage ballot = ballots[ballotId];\n\n        ballot.canVote[msg.sender] = false;\n        ballot.proposalVoteCount[proposalNumber]++;\n\n        emit Voted(msg.sender, ballot.id, proposalNumber);\n    }\n\n}",
  "sourcePath": "/Users/ss/Work/stpoa/voting/truffle/contracts/Voting.sol",
  "compiler": {
    "name": "solc",
    "version": "0.5.0+commit.1d4f565a.Emscripten.clang"
  },
  "schemaVersion": "3.0.2",
  "updatedAt": "2019-03-03T07:18:55.523Z",
  "devdoc": {
    "methods": {}
  },
  "userdoc": {
    "methods": {}
  }
}